:020000040000FA
:0400000072EF01F0AA
:08000800056ED8CF06F0E0CF31
:1000100007F00001E9CF0DF0EACF08F0E1CF09F0D9
:10002000E2CF0AF0D9CF0BF0DACF0CF0F3CF14F017
:10003000F4CF15F0FACF16F000C00FF001C010F0A9
:1000400002C011F003C012F004C013F0F2A82CEFAC
:1000500000F0F2B25BEF00F0F0A632EF00F0F0B08B
:100060005FEF00F09DAA38EF00F09EBA63EF00F05A
:100070000FC000F010C001F011C002F012C003F078
:1000800013C004F00E8E0DC0E9FF08C0EAFF09C0DE
:10009000E1FF0AC0E2FF0BC0D9FF0CC0DAFF14C0B9
:1000A000F3FF15C0F4FF16C0FAFF055007C0E0FFCC
:1000B00006C0D8FF10002180F29238EF00F02182B4
:1000C000F09038EF00F09EAAFED7AECF22F0218448
:1000D0009E9A38EF00F0006A016A2F50D89030B035
:1000E00000260032013230B200260032013230B434
:1000F00000260032013230B600260032013230B81C
:1001000000260032013230BA00260032013230BC03
:1001100000260032013230BE002600320132FDEFEF
:1001200000F02D6A2B6A0A0E2C6E2A6A28502910BC
:1001300003E1000E016EC1D02D502D2A036A282440
:10014000E96E29500320EA6EEFCF2EF02E502D08D5
:100150000DE1010E2B6E2D502D2A036A2824E96E25
:1001600029500320EA6EEFCF2EF00DD02E502B0831
:100170000AE12D502D2A036A2824E96E2950032014
:10018000EA6EEFCF2EF02E502F08D8B08ED02E5022
:100190003908D8A08AD02E50300821E1036A2D50AA
:1001A0002824E96E29500320EA6EEF5078080AE00F
:1001B000036A2D502824E96E29500320EA6EEF507F
:1001C00058080DE1100E2C6E2D2A2D502D2A036A91
:1001D0002824E96E29500320EA6EEFCF2EF02C5030
:1001E0000A081BE12E502F0817E22E50390814E39D
:1001F0000A0E2F6E2AC030F06ED7300E2E5C01240E
:100200002A6E2D502D2A036A2824E96E29500320D6
:10021000EA6EEFCF2EF0E6D748D02C50100845E11B
:100220002E50600806E22E507A0803E32E50DF0BB2
:1002300001D02E502E6E2E502F0803E22E5039087A
:1002400006E22E50400831E22E5046082EE32E5092
:100250002F080CE22E50390809E32A382F6EF00ED1
:100260002F16300E2E5C2F242A6E09D02A382F6EBE
:10027000F00E2F16410E2E5C0A0F2F242A6E2D50E1
:100280002D2A036A2824E96E29500320EA6EEFCF55
:100290002EF02E50600806E22E507A0803E32E500E
:1002A000DF0B01D02E502E6EC6D72B2C04D02C5035
:1002B0000A0801E12A6C2AC001F09BEF01F0EA6A0A
:1002C000280EE96EEF500DE0060E016E006A002E5A
:1002D000FED7012EFBD77B0E006E002EFED7EF2E31
:1002E000F3D7000CF86AD09E0D8EEA6AE96A810E97
:1002F000AF6EA60EAC6E900EAB6EC180C182C18493
:10030000C196070EB46E186A196A040E1E6E1F6A33
:10031000050E206E219021922194276AF288F086A2
:100320009D8AC00EF212D26A21A407D02194296AB4
:10033000220E286EF6D601C020F01F50100DF3508B
:100340001E24276E956A27C08CFF2750205C0FE281
:10035000969096929694020E8D6EFA0E286EAFDFEE
:100360009690969296948D6AFA0E286EA8DF275082
:10037000205C05E3969096929694010E8D6E21A0D6
:1003800009D01E50090803E11E6A1F2A01D01E2A47
:10039000219012D021A210D01E5206E11F5204E07B
:1003A000090E1E6E1F0607D01E5204E11F5202E105
:0C03B00003D001D01E062192B7D7030035
:020000040030CA
:0E00000000220E0E000081000FC00FE00F4026
:00000001FF
;PIC18F458
