:04000000A9EF00F074
:08000800046ED8CF05F0E0CF33
:1000100006F00001E9CF0CF0EACF07F0E1CF08F0DD
:10002000E2CF09F0D9CF0AF0DACF0BF0F3CF12F01C
:10003000F4CF13F0FACF14F0F5CF15F0F6CF16F099
:10004000F7CF17F000C00EF001C00FF002C010F0A3
:1000500003C011F0F2A830EF00F0F2B263EF00F04D
:10006000F0A636EF00F0F0B067EF00F09DAA3CEF8D
:1000700000F09EBA8FEF00F00EC000F00FC001F04C
:1000800010C002F011C003F00CC0E9FF07C0EAFF86
:10009000078E08C0E1FF09C0E2FF0AC0D9FF0BC00C
:1000A000DAFF12C0F3FF13C0F4FF14C0FAFF15C04B
:1000B000F5FF16C0F6FF17C0F7FF045006C0E0FFBB
:1000C00005C0D8FF10001C80F2923CEF00F01C82AB
:1000D000F0903CEF00F0948E82BEFED7080E006ECA
:1000E000206A008E0ED0009E0CD0D89082BED880A0
:1000F0002032008C06D0009C002EF7D720C001F0E3
:100100000CD0A70E00BE2D0E016E012EFED70000F2
:1001100000BEE9D700BCEFD7E8D790EF00F0DBD7FF
:1001200001C01DF01C849E9A3CEF00F0EA6A1F0E8D
:10013000E96EEF500DE0060E016E006A002EFED74C
:10014000012EFBD77B0E006E002EFED7EF2EF3D7CD
:100150001200F86AD09E078E949C8B8C090E196E43
:100160001A6A050E1B6E1C901C921C94C180C182E1
:10017000C184C196070EB46EF288F0869D8AC00EC7
:10018000F212D26A1CA405D0969096929694010E13
:100190008D6E1A50100DF35019241E6E956A1EC0F4
:1001A0008CFF1E501B5C0FE2969096929694020E66
:1001B0008D6EFA0E1F6EBADF9690969296948D6AA7
:1001C000FA0E1F6EB3DF1E501B5C05E396909692ED
:1001D0009694010E8D6E1CA009D01950090803E1F8
:1001E000196A1A2A01D0192A1C9012D01CA210D008
:1001F000195206E11A5204E0090E196E1A0607D0C8
:10020000195204E11A5202E1BDD701D019061C921D
:04021000B9D7030057
:020000040030CA
:0E00000000220E0E000081000FC00FE00F4026
:00000001FF
;PIC18F458
;CRC=3FFF  CREATED="05-mai-21 16:15"
