:0400000072EF01F0AA
:08000800046ED8CF05F0E0CF33
:1000100006F00001E9CF0CF0EACF07F0E1CF08F0DD
:10002000E2CF09F0D9CF0AF0DACF0BF0F3CF12F01C
:10003000F4CF13F0FACF14F0F5CF15F0F6CF16F099
:10004000F7CF17F000C00EF001C00FF002C010F0A3
:1000500003C011F0F2A830EF00F0F2B263EF00F04D
:10006000F0A636EF00F0F0B067EF00F09DAA3CEF8D
:1000700000F09EBA6BEF00F00EC000F00FC001F070
:1000800010C002F011C003F00CC0E9FF07C0EAFF86
:10009000078E08C0E1FF09C0E2FF0AC0D9FF0BC00C
:1000A000DAFF12C0F3FF13C0F4FF14C0FAFF15C04B
:1000B000F5FF16C0F6FF17C0F7FF045006C0E0FFBB
:1000C00005C0D8FF10002280F2923CEF00F022829F
:1000D000F0903CEF00F09EAAFED7AECF23F0228432
:1000E0009E9A3CEF00F0006A016A2F50D89030B021
:1000F00000260032013230B200260032013230B424
:1001000000260032013230B600260032013230B80B
:1001100000260032013230BA00260032013230BCF3
:1001200000260032013230BE002600320132FFEFDD
:1001300000F02D6A2B6A0A0E2C6E2A6A28502910AC
:1001400003E1000E016EB9D02D502D2A2824E96E4E
:10015000000E2920EA6EEFCF2EF02E502D080CE174
:10016000010E2B6E2D502D2A2824E96E000E292019
:10017000EA6EEFCF2EF00CD02E502B0809E12D5057
:100180002D2A2824E96E000E2920EA6EEFCF2EF0EA
:100190002E502F08D8B089D02E503908D8A085D03D
:1001A0002E5030081EE12D502824E96E000E292023
:1001B000EA6EEF50780809E02D502824E96E000E11
:1001C0002920EA6EEF5058080CE1100E2C6E2D2AF3
:1001D0002D502D2A2824E96E000E2920EA6EEFCF3B
:1001E0002EF02C500A081AE12E502F0816E22E503D
:1001F000390813E30A0E2F6E2AC030F074D7300E80
:100200002E5C01242A6E2D502D2A2824E96E000E22
:100210002920EA6EEFCF2EF0E7D747D02C501008F8
:1002200044E12E50600806E22E507A0803E32E5077
:10023000DF0B01D02E502E6E2E502F0803E22E50D1
:10024000390806E22E50400830E22E5046082DE3D1
:100250002E502F080CE22E50390809E32A382F6E51
:10026000F00E2F16300E2E5C2F242A6E09D02A385D
:100270002F6EF00E2F16410E2E5C0A0F2F242A6EC1
:100280002D502D2A2824E96E000E2920EA6EEFCF8A
:100290002EF02E50600806E22E507A0803E32E500E
:1002A000DF0B01D02E502E6EC7D72B2C04D02C5034
:1002B0000A0801E12A6C2AC001F098EF01F0EA6A0D
:1002C000280EE96EEF500DE0060E016E006A002E5A
:1002D000FED7012EFBD77B0E006E002EFED7EF2E31
:1002E000F3D71200F86AD09E078E810EAF6EA60E6D
:1002F000AC6E900EAB6E040E1F6E206A050E216E62
:10030000229022922294C180C182C184C196070E9C
:10031000B46E196A1A6AF288F0869D8AC00EF212CB
:10032000D26A22A407D02294296A230E286E01D70C
:1003300001C021F02050100DF3501F24276E956A44
:1003400027C08CFF2750215C0FE2969096929694DE
:10035000020E8D6EFA0E286EB2DF969096929694EB
:100360008D6AFA0E286EABDF2750215C05E396906C
:1003700096929694010E8D6E22A009D01F50090806
:1003800003E11F6A202A01D01F2A229012D022A244
:1003900010D01F5206E1205204E0090E1F6E200605
:1003A00007D01F5204E1205202E103D001D01F0602
:0603B0002292B7D7030002
:020000040030CA
:0E00000000220E0E000081000FC00FE00F4026
:00000001FF
;PIC18F458
;CRC=2105  CREATED="07-mai-21 16:36"
